:060000000A128A11F42F20
:1007A2008316031389018312031309144030F200E4
:1007B2006A30F1009730F000F00BDD2BF10BDD2BEE
:1007C200F20BDD2BE42B8312031309104030F200ED
:1007D2006A30F1009730F000F00BED2BF10BED2BAE
:1007E200F20BED2BF42B0800F300730883120313B2
:1007F20088007018FD2B012C831203138714042C1C
:10080200831203138710071007150730F2007D309B
:10081200F100F10B0A2CF20B0A2C831203130711BD
:100822002130F2007630F100F10B152CF20B152C71
:10083200000008004130831203132006031D222CFE
:10084200232C852C31302106031D282C292C852CA4
:1008520032302206031D2E2C2F2C852C33302306FA
:10086200031D342C352C852CF00101300A128A111B
:10087200F5230A128A114130F500EE30F400F40B30
:10088200402CF50B402C0000F00180300A128A1136
:10089200F5230A128A11F001F00A57300A128A115E
:1008A200F5230A128A11F001F00A45300A128A1160
:1008B200F5230A128A11F001F00A4C300A128A1149
:1008C200F5230A128A11F001F00A43300A128A1142
:1008D200F5230A128A11F001F00A4F300A128A1126
:1008E200F5230A128A11F001F00A4D300A128A1118
:1008F200F5230A128A11F001F00A45300A128A1110
:10090200F5230A128A11112DF00101300A128A11FF
:10091200F5230A128A114130F500EE30F400F40B8F
:10092200902CF50B902C0000F00180300A128A11F5
:10093200F5230A128A11F001F00A57300A128A11BD
:10094200F5230A128A11F001F00A52300A128A11B2
:10095200F5230A128A11F001F00A4F300A128A11A5
:10096200F5230A128A11F001F00A4E300A128A1196
:10097200F5230A128A11F001F00A47300A128A118D
:10098200F5230A128A11F001F00A20300A128A11A4
:10099200F5230A128A11F001F00A50300A128A1164
:1009A200F5230A128A11F001F00A41300A128A1163
:1009B200F5230A128A11F001F00A53300A128A1141
:1009C200F5230A128A11F001F00A53300A128A1131
:1009D200F5230A128A11F001F00A57300A128A111D
:1009E200F5230A128A11F001F00A4F300A128A1115
:1009F200F5230A128A11F001F00A52300A128A1102
:100A0200F5230A128A11F001F00A44300A128A11FF
:100A1200F5230A128A110A128A11D1230A128A11A3
:100A2200FA0183120313A001A101A201A301A401EF
:100A32002730F6000D30F5002630F400F40B1F2DA0
:100A4200F50B1F2DF60B1F2D0000F00101300A12CD
:100A52008A11F5230A128A114130F500EE30F400B2
:100A6200F40B312DF50B312D000008008316031312
:100A72008701880183120313870188010630F90078
:100A82001330F800AD30F700F70B452DF80B452D6C
:100A9200F90B452D4C2DF00130300A128A11F52345
:100AA2000A128A114130F800EE30F700F70B572D89
:100AB200F80B572D0000F00130300A128A11F5238D
:100AC2000A128A114130F800EE30F700F70B672D59
:100AD200F80B672D0000F00130300A128A11F5235D
:100AE2000A128A114130F800EE30F700F70B772D29
:100AF200F80B772D0000F00138300A128A11F52325
:100B02000A128A11F0010C300A128A11F5230A1214
:100B12008A11F00101300A128A11F5230A128A1190
:100B22004130F800EE30F700F70B952DF80B952DBC
:100B32000000F00106300A128A11F5230A128A1106
:100B42001F308316031386007F3081050F309F000C
:100B5200FA01831203138612061786178618B22D1E
:100B6200B32DE22D04307A020318B82DB92DD62DFB
:100B7200F001F00A41300A128A11F5230A128A1191
:100B82007A08203E84004130831380000130FA0746
:100B92000730F9005830F8005930F700F70BCF2D25
:100BA200F80BCF2DF90BCF2DD62D04307A06031D6D
:100BB200DB2DDC2D6C2E0A128A111B240A128A11DB
:100BC2006C2E0619E52DE62D102E04307A0203183C
:100BD200EB2DEC2D092EF001F00A42300A128A1197
:100BE200F5230A128A117A08203E840042308313C8
:100BF20080000130FA070730F9005830F800593008
:100C0200F700F70B022EF80B022EF90B022E092E1B
:100C120004307A06031D0E2E0F2E6C2EDC2D861943
:100C2200132E142E3E2E04307A020318192E1A2E79
:100C3200372EF001F00A43300A128A11F5230A1204
:100C42008A117A08203E84004330831380000130E9
:100C5200FA070730F9005830F8005930F700F70B5F
:100C6200302EF80B302EF90B302E372E04307A0648
:100C7200031D3C2E3D2E6C2EDC2D061A412E422EDB
:100C82006C2E04307A020318472E482E652EF0018E
:100C9200F00A44300A128A11F5230A128A117A08DC
:100CA200203E84004430831380000130FA0707306D
:100CB200F9005830F8005930F700F70B5E2EF80BA8
:100CC2005E2EF90B5E2E652E04307A06031D6A2E07
:100CD2006B2E6C2EDC2D83120313861606138617D9
:100CE2008618742E752EA42E04307A0203187A2EDA
:100CF2007B2E982EF001F00A31300A128A11F52368
:100D02000A128A117A08203E84003130831380004F
:100D12000130FA070730F9005830F8005930F7006F
:100D2200F70B912EF80B912EF90B912E982E043081
:100D32007A06031D9D2E9E2E2E2F0A128A111B2427
:100D42000A128A112E2F0619A72EA82ED22E04308F
:100D52007A020318AD2EAE2ECB2EF001F00A3230FD
:100D62000A128A11F5230A128A117A08203E840097
:100D72003230831380000130FA070730F90058300F
:100D8200F8005930F700F70BC42EF80BC42EF90BFC
:100D9200C42ECB2E04307A06031DD02ED12E2E2F38
:100DA2009E2E8619D52ED62E002F04307A020318D5
:100DB200DB2EDC2EF92EF001F00A33300A128A11F2
:100DC200F5230A128A117A08203E840033308313F5
:100DD20080000130FA070730F9005830F800593026
:100DE200F700F70BF22EF80BF22EF90BF22EF92E7A
:100DF20004307A06031DFE2EFF2E2E2F9E2E061A7B
:100E0200032F042F2E2F04307A020318092F0A2FE2
:100E1200272FF001F00A34300A128A11F5230A1240
:100E22008A117A08203E8400343083138000013016
:100E3200FA070730F9005830F8005930F700F70B7D
:100E4200202FF80B202FF90B202F272F04307A06A2
:100E5200031D2C2F2D2F2E2F9E2E83120313861649
:100E6200061786138618362F372F662F04307A021C
:100E720003183C2F3D2F5A2FF001F00A35300A1289
:100E82008A11F5230A128A117A08203E840035302D
:100E9200831380000130FA070730F9005830F80058
:100EA2005930F700F70B532FF80B532FF90B532F31
:100EB2005A2F04307A06031D5F2F602FAA2D0A12C3
:100EC2008A111B240A128A11AA2D0619692F6A2F68
:100ED200942F04307A0203186F2F702F8D2FF00198
:100EE200F00A36300A128A11F5230A128A117A0898
:100EF200203E84003630831380000130FA07073029
:100F0200F9005830F8005930F700F70B862FF80B2C
:100F1200862FF90B862F8D2F04307A06031D922F10
:100F2200932FAA2D602F8619972F982FC22F043046
:100F32007A0203189D2F9E2FBB2FF001F00A373043
:100F42000A128A11F5230A128A117A08203E8400B5
:100F52003730831380000130FA070730F900583028
:100F6200F8005930F700F70BB42FF80BB42FF90B38
:100F7200B42FBB2F04307A06031DC02FC12FAA2D18
:100F8200602F061AC52FC62FAA2D04307A02031825
:100F9200CB2FCC2FE92FF001F00A38300A128A1138
:100FA200F5230A128A117A08203E8400383083130E
:100FB20080000130FA070730F9005830F800593044
:100FC200F700F70BE22FF80BE22FF90BE22FE92FD4
:100FD20004307A06031DEE2FEF2FF02F602FAA2D7B
:100FE2000A128A110028FA0183120313A001A10137
:0E0FF200A201A301A40183010A128A11372D66
:02400E00723FFF
:00000001FF
